{
  "_format": "hh-sol-artifact-1",
  "contractName": "Counter",
  "sourceName": "contracts/Counter.sol",
  "abi": [
    {
      "inputs": [],
      "stateMutability": "nonpayable",
      "type": "constructor"
    },
    {
      "inputs": [],
      "name": "decreaseCount",
      "outputs": [],
      "stateMutability": "nonpayable",
      "type": "function"
    },
    {
      "inputs": [],
      "name": "getCount",
      "outputs": [
        {
          "internalType": "uint256",
          "name": "",
          "type": "uint256"
        }
      ],
      "stateMutability": "view",
      "type": "function"
    },
    {
      "inputs": [],
      "name": "increaseCount",
      "outputs": [],
      "stateMutability": "nonpayable",
      "type": "function"
    }
  ],
  "bytecode": "0x608060405234801561001057600080fd5b5060008081905550610279806100276000396000f3fe608060405234801561001057600080fd5b50600436106100415760003560e01c8063a87d942c14610046578063abd1b73d14610064578063e834cbb31461006e575b600080fd5b61004e610078565b60405161005b9190610114565b60405180910390f35b61006c610081565b005b61007661009c565b005b60008054905090565b6001600080828254610093919061015e565b92505081905550565b60008054116100e0576040517f08c379a00000000000000000000000000000000000000000000000000000000081526004016100d7906101ef565b60405180910390fd5b60016000808282546100f2919061020f565b92505081905550565b6000819050919050565b61010e816100fb565b82525050565b60006020820190506101296000830184610105565b92915050565b7f4e487b7100000000000000000000000000000000000000000000000000000000600052601160045260246000fd5b6000610169826100fb565b9150610174836100fb565b925082820190508082111561018c5761018b61012f565b5b92915050565b600082825260208201905092915050565b7f436f756e742063616e6e6f74206265206e656761746976650000000000000000600082015250565b60006101d9601883610192565b91506101e4826101a3565b602082019050919050565b60006020820190508181036000830152610208816101cc565b9050919050565b600061021a826100fb565b9150610225836100fb565b925082820390508181111561023d5761023c61012f565b5b9291505056fea2646970667358221220182aa1cdf38b90d9e2c758f7f301d2cdcf5e1dc7e29a58c421a472151036f70664736f6c63430008120033",
  "linkReferences": {},
  "deployedLinkReferences": {}
}