{
  "_format": "hh-sol-artifact-1",
  "contractName": "SimpleStorage",
  "sourceName": "contracts/SimpleStorage.sol",
  "abi": [
    {
      "inputs": [],
      "name": "dataID",
      "outputs": [
        {
          "internalType": "uint256",
          "name": "",
          "type": "uint256"
        }
      ],
      "stateMutability": "view",
      "type": "function"
    },
    {
      "inputs": [
        {
          "internalType": "uint256",
          "name": "id",
          "type": "uint256"
        }
      ],
      "name": "get",
      "outputs": [
        {
          "internalType": "string",
          "name": "",
          "type": "string"
        }
      ],
      "stateMutability": "view",
      "type": "function"
    },
    {
      "inputs": [
        {
          "internalType": "string",
          "name": "data",
          "type": "string"
        }
      ],
      "name": "set",
      "outputs": [],
      "stateMutability": "nonpayable",
      "type": "function"
    },
    {
      "inputs": [
        {
          "internalType": "uint256",
          "name": "",
          "type": "uint256"
        }
      ],
      "name": "storedData",
      "outputs": [
        {
          "internalType": "string",
          "name": "",
          "type": "string"
        }
      ],
      "stateMutability": "view",
      "type": "function"
    }
  ],
  "bytecode": "0x60806040526000805534801561001457600080fd5b50610a23806100246000396000f3fe608060405234801561001057600080fd5b506004361061004c5760003560e01c806330377174146100515780634ed3885e14610081578063738308c21461009d5780639507d39a146100bb575b600080fd5b61006b60048036038101906100669190610342565b6100eb565b60405161007891906103ff565b60405180910390f35b61009b60048036038101906100969190610556565b610197565b005b6100a56101e6565b6040516100b291906105ae565b60405180910390f35b6100d560048036038101906100d09190610342565b6101ec565b6040516100e291906103ff565b60405180910390f35b600181815481106100fb57600080fd5b906000526020600020016000915090508054610116906105f8565b80601f0160208091040260200160405190810160405280929190818152602001828054610142906105f8565b801561018f5780601f106101645761010080835404028352916020019161018f565b820191906000526020600020905b81548152906001019060200180831161017257829003601f168201915b505050505081565b6000808154809291906101a990610658565b91905055506001819080600181540180825580915050600190039060005260206000200160009091909190915090816101e2919061084c565b5050565b60005481565b606060008211801561020057506000548211155b61023f576040517f08c379a00000000000000000000000000000000000000000000000000000000081526004016102369061096a565b60405180910390fd5b6001808361024d919061098a565b8154811061025e5761025d6109be565b5b906000526020600020018054610273906105f8565b80601f016020809104026020016040519081016040528092919081815260200182805461029f906105f8565b80156102ec5780601f106102c1576101008083540402835291602001916102ec565b820191906000526020600020905b8154815290600101906020018083116102cf57829003601f168201915b50505050509050919050565b6000604051905090565b600080fd5b600080fd5b6000819050919050565b61031f8161030c565b811461032a57600080fd5b50565b60008135905061033c81610316565b92915050565b60006020828403121561035857610357610302565b5b60006103668482850161032d565b91505092915050565b600081519050919050565b600082825260208201905092915050565b60005b838110156103a957808201518184015260208101905061038e565b60008484015250505050565b6000601f19601f8301169050919050565b60006103d18261036f565b6103db818561037a565b93506103eb81856020860161038b565b6103f4816103b5565b840191505092915050565b6000602082019050818103600083015261041981846103c6565b905092915050565b600080fd5b600080fd5b7f4e487b7100000000000000000000000000000000000000000000000000000000600052604160045260246000fd5b610463826103b5565b810181811067ffffffffffffffff821117156104825761048161042b565b5b80604052505050565b60006104956102f8565b90506104a1828261045a565b919050565b600067ffffffffffffffff8211156104c1576104c061042b565b5b6104ca826103b5565b9050602081019050919050565b82818337600083830152505050565b60006104f96104f4846104a6565b61048b565b90508281526020810184848401111561051557610514610426565b5b6105208482856104d7565b509392505050565b600082601f83011261053d5761053c610421565b5b813561054d8482602086016104e6565b91505092915050565b60006020828403121561056c5761056b610302565b5b600082013567ffffffffffffffff81111561058a57610589610307565b5b61059684828501610528565b91505092915050565b6105a88161030c565b82525050565b60006020820190506105c3600083018461059f565b92915050565b7f4e487b7100000000000000000000000000000000000000000000000000000000600052602260045260246000fd5b6000600282049050600182168061061057607f821691505b602082108103610623576106226105c9565b5b50919050565b7f4e487b7100000000000000000000000000000000000000000000000000000000600052601160045260246000fd5b60006106638261030c565b91507fffffffffffffffffffffffffffffffffffffffffffffffffffffffffffffffff820361069557610694610629565b5b600182019050919050565b60008190508160005260206000209050919050565b60006020601f8301049050919050565b600082821b905092915050565b6000600883026107027fffffffffffffffffffffffffffffffffffffffffffffffffffffffffffffffff826106c5565b61070c86836106c5565b95508019841693508086168417925050509392505050565b6000819050919050565b600061074961074461073f8461030c565b610724565b61030c565b9050919050565b6000819050919050565b6107638361072e565b61077761076f82610750565b8484546106d2565b825550505050565b600090565b61078c61077f565b61079781848461075a565b505050565b5b818110156107bb576107b0600082610784565b60018101905061079d565b5050565b601f821115610800576107d1816106a0565b6107da846106b5565b810160208510156107e9578190505b6107fd6107f5856106b5565b83018261079c565b50505b505050565b600082821c905092915050565b600061082360001984600802610805565b1980831691505092915050565b600061083c8383610812565b9150826002028217905092915050565b6108558261036f565b67ffffffffffffffff81111561086e5761086d61042b565b5b61087882546105f8565b6108838282856107bf565b600060209050601f8311600181146108b657600084156108a4578287015190505b6108ae8582610830565b865550610916565b601f1984166108c4866106a0565b60005b828110156108ec578489015182556001820191506020850194506020810190506108c7565b868310156109095784890151610905601f891682610812565b8355505b6001600288020188555050505b505050505050565b7f496e76616c696420646174612049442100000000000000000000000000000000600082015250565b600061095460108361037a565b915061095f8261091e565b602082019050919050565b6000602082019050818103600083015261098381610947565b9050919050565b60006109958261030c565b91506109a08361030c565b92508282039050818111156109b8576109b7610629565b5b92915050565b7f4e487b7100000000000000000000000000000000000000000000000000000000600052603260045260246000fdfea2646970667358221220236c172b934a9d270cfc13ee6637617f9fb9f178344611dda7c3671233e6824d64736f6c63430008120033",
  "linkReferences": {},
  "deployedLinkReferences": {}
}