{
  "_format": "hh-sol-artifact-1",
  "contractName": "FarmDAO",
  "sourceName": "contracts/Dao.sol",
  "abi": [
    {
      "inputs": [
        {
          "internalType": "string",
          "name": "_title",
          "type": "string"
        }
      ],
      "stateMutability": "nonpayable",
      "type": "constructor"
    },
    {
      "anonymous": false,
      "inputs": [
        {
          "indexed": false,
          "internalType": "address",
          "name": "farmerAddress1",
          "type": "address"
        },
        {
          "indexed": false,
          "internalType": "uint256",
          "name": "daoId",
          "type": "uint256"
        },
        {
          "indexed": false,
          "internalType": "string",
          "name": "daoName",
          "type": "string"
        }
      ],
      "name": "DaoCreated",
      "type": "event"
    },
    {
      "anonymous": false,
      "inputs": [
        {
          "indexed": false,
          "internalType": "uint256",
          "name": "daoId",
          "type": "uint256"
        }
      ],
      "name": "DaoVerified",
      "type": "event"
    },
    {
      "anonymous": false,
      "inputs": [
        {
          "indexed": false,
          "internalType": "address",
          "name": "investor",
          "type": "address"
        },
        {
          "indexed": false,
          "internalType": "uint256",
          "name": "amount",
          "type": "uint256"
        }
      ],
      "name": "InvestmentAdded",
      "type": "event"
    },
    {
      "inputs": [
        {
          "internalType": "uint256",
          "name": "daoId",
          "type": "uint256"
        }
      ],
      "name": "addInvestment",
      "outputs": [],
      "stateMutability": "payable",
      "type": "function"
    },
    {
      "inputs": [
        {
          "internalType": "address",
          "name": "_farmer1",
          "type": "address"
        },
        {
          "internalType": "address",
          "name": "_farmer2",
          "type": "address"
        },
        {
          "internalType": "string",
          "name": "_description",
          "type": "string"
        },
        {
          "internalType": "string",
          "name": "_name",
          "type": "string"
        },
        {
          "internalType": "string",
          "name": "_farmReports",
          "type": "string"
        },
        {
          "internalType": "string",
          "name": "_financialReports",
          "type": "string"
        }
      ],
      "name": "createDao",
      "outputs": [],
      "stateMutability": "nonpayable",
      "type": "function"
    },
    {
      "inputs": [],
      "name": "daoCreated",
      "outputs": [
        {
          "internalType": "bool",
          "name": "",
          "type": "bool"
        }
      ],
      "stateMutability": "view",
      "type": "function"
    },
    {
      "inputs": [
        {
          "internalType": "address",
          "name": "",
          "type": "address"
        },
        {
          "internalType": "uint256",
          "name": "",
          "type": "uint256"
        }
      ],
      "name": "daoFarmers",
      "outputs": [
        {
          "internalType": "address",
          "name": "",
          "type": "address"
        }
      ],
      "stateMutability": "view",
      "type": "function"
    },
    {
      "inputs": [],
      "name": "daoID",
      "outputs": [
        {
          "internalType": "uint256",
          "name": "",
          "type": "uint256"
        }
      ],
      "stateMutability": "view",
      "type": "function"
    },
    {
      "inputs": [
        {
          "internalType": "uint256",
          "name": "",
          "type": "uint256"
        }
      ],
      "name": "daos",
      "outputs": [
        {
          "internalType": "address",
          "name": "address1",
          "type": "address"
        },
        {
          "internalType": "address",
          "name": "address2",
          "type": "address"
        },
        {
          "internalType": "string",
          "name": "description",
          "type": "string"
        },
        {
          "internalType": "string",
          "name": "farmReports",
          "type": "string"
        },
        {
          "internalType": "string",
          "name": "financialReports",
          "type": "string"
        },
        {
          "internalType": "string",
          "name": "name",
          "type": "string"
        },
        {
          "internalType": "uint256",
          "name": "id",
          "type": "uint256"
        },
        {
          "internalType": "uint256",
          "name": "amountInvested",
          "type": "uint256"
        },
        {
          "internalType": "bool",
          "name": "verified",
          "type": "bool"
        }
      ],
      "stateMutability": "view",
      "type": "function"
    },
    {
      "inputs": [],
      "name": "farmer1",
      "outputs": [
        {
          "internalType": "address",
          "name": "",
          "type": "address"
        }
      ],
      "stateMutability": "view",
      "type": "function"
    },
    {
      "inputs": [],
      "name": "farmer2",
      "outputs": [
        {
          "internalType": "address",
          "name": "",
          "type": "address"
        }
      ],
      "stateMutability": "view",
      "type": "function"
    },
    {
      "inputs": [],
      "name": "getAllDaos",
      "outputs": [
        {
          "components": [
            {
              "internalType": "address",
              "name": "address1",
              "type": "address"
            },
            {
              "internalType": "address",
              "name": "address2",
              "type": "address"
            },
            {
              "internalType": "string",
              "name": "description",
              "type": "string"
            },
            {
              "internalType": "string",
              "name": "farmReports",
              "type": "string"
            },
            {
              "internalType": "string",
              "name": "financialReports",
              "type": "string"
            },
            {
              "internalType": "string",
              "name": "name",
              "type": "string"
            },
            {
              "internalType": "uint256",
              "name": "id",
              "type": "uint256"
            },
            {
              "internalType": "uint256",
              "name": "amountInvested",
              "type": "uint256"
            },
            {
              "internalType": "address[]",
              "name": "investors",
              "type": "address[]"
            },
            {
              "internalType": "bool",
              "name": "verified",
              "type": "bool"
            }
          ],
          "internalType": "struct FarmDAO.Dao[]",
          "name": "",
          "type": "tuple[]"
        }
      ],
      "stateMutability": "view",
      "type": "function"
    },
    {
      "inputs": [],
      "name": "getAllInvestorInfo",
      "outputs": [
        {
          "components": [
            {
              "internalType": "address",
              "name": "investorAddress",
              "type": "address"
            },
            {
              "internalType": "string",
              "name": "name",
              "type": "string"
            }
          ],
          "internalType": "struct FarmDAO.Investor[]",
          "name": "",
          "type": "tuple[]"
        }
      ],
      "stateMutability": "view",
      "type": "function"
    },
    {
      "inputs": [
        {
          "internalType": "uint256",
          "name": "daoId",
          "type": "uint256"
        }
      ],
      "name": "getCurrentAmountAvailable",
      "outputs": [
        {
          "internalType": "uint256",
          "name": "",
          "type": "uint256"
        }
      ],
      "stateMutability": "view",
      "type": "function"
    },
    {
      "inputs": [
        {
          "internalType": "uint256",
          "name": "daoId",
          "type": "uint256"
        }
      ],
      "name": "getTotalAmountWithdrawn",
      "outputs": [
        {
          "internalType": "uint256",
          "name": "",
          "type": "uint256"
        }
      ],
      "stateMutability": "view",
      "type": "function"
    },
    {
      "inputs": [
        {
          "internalType": "uint256",
          "name": "daoId",
          "type": "uint256"
        }
      ],
      "name": "getTotalInvestment",
      "outputs": [
        {
          "internalType": "uint256",
          "name": "",
          "type": "uint256"
        }
      ],
      "stateMutability": "view",
      "type": "function"
    },
    {
      "inputs": [
        {
          "internalType": "address",
          "name": "investor",
          "type": "address"
        }
      ],
      "name": "getTotalInvestmentByInvestor",
      "outputs": [
        {
          "internalType": "uint256",
          "name": "",
          "type": "uint256"
        }
      ],
      "stateMutability": "view",
      "type": "function"
    },
    {
      "inputs": [
        {
          "internalType": "address",
          "name": "investor",
          "type": "address"
        }
      ],
      "name": "getTotalNumberOfDaosByInvestor",
      "outputs": [
        {
          "internalType": "uint256",
          "name": "",
          "type": "uint256"
        }
      ],
      "stateMutability": "view",
      "type": "function"
    },
    {
      "inputs": [],
      "name": "getVerifiedAddresses",
      "outputs": [
        {
          "internalType": "address[]",
          "name": "",
          "type": "address[]"
        }
      ],
      "stateMutability": "view",
      "type": "function"
    },
    {
      "inputs": [
        {
          "internalType": "address",
          "name": "",
          "type": "address"
        }
      ],
      "name": "investments",
      "outputs": [
        {
          "internalType": "uint256",
          "name": "",
          "type": "uint256"
        }
      ],
      "stateMutability": "view",
      "type": "function"
    },
    {
      "inputs": [
        {
          "internalType": "address",
          "name": "_address",
          "type": "address"
        }
      ],
      "name": "isAddressVerified",
      "outputs": [
        {
          "internalType": "bool",
          "name": "",
          "type": "bool"
        }
      ],
      "stateMutability": "view",
      "type": "function"
    },
    {
      "inputs": [
        {
          "internalType": "address",
          "name": "investor",
          "type": "address"
        }
      ],
      "name": "isInvestorRegistered",
      "outputs": [
        {
          "internalType": "bool",
          "name": "",
          "type": "bool"
        }
      ],
      "stateMutability": "view",
      "type": "function"
    },
    {
      "inputs": [],
      "name": "minimumInvestment",
      "outputs": [
        {
          "internalType": "uint256",
          "name": "",
          "type": "uint256"
        }
      ],
      "stateMutability": "view",
      "type": "function"
    },
    {
      "inputs": [],
      "name": "owner",
      "outputs": [
        {
          "internalType": "address",
          "name": "",
          "type": "address"
        }
      ],
      "stateMutability": "view",
      "type": "function"
    },
    {
      "inputs": [
        {
          "internalType": "address",
          "name": "",
          "type": "address"
        },
        {
          "internalType": "uint256",
          "name": "",
          "type": "uint256"
        }
      ],
      "name": "partialAmountPaid",
      "outputs": [
        {
          "internalType": "uint256",
          "name": "",
          "type": "uint256"
        }
      ],
      "stateMutability": "view",
      "type": "function"
    },
    {
      "inputs": [
        {
          "internalType": "string",
          "name": "name",
          "type": "string"
        }
      ],
      "name": "registerInvestor",
      "outputs": [],
      "stateMutability": "nonpayable",
      "type": "function"
    },
    {
      "inputs": [
        {
          "internalType": "uint256",
          "name": "",
          "type": "uint256"
        }
      ],
      "name": "registeredInvestors",
      "outputs": [
        {
          "internalType": "address",
          "name": "investorAddress",
          "type": "address"
        },
        {
          "internalType": "string",
          "name": "name",
          "type": "string"
        }
      ],
      "stateMutability": "view",
      "type": "function"
    },
    {
      "inputs": [
        {
          "internalType": "uint256",
          "name": "daoId",
          "type": "uint256"
        }
      ],
      "name": "removeDao",
      "outputs": [],
      "stateMutability": "nonpayable",
      "type": "function"
    },
    {
      "inputs": [
        {
          "internalType": "uint256",
          "name": "daoId",
          "type": "uint256"
        },
        {
          "internalType": "uint256",
          "name": "amountToRepay",
          "type": "uint256"
        }
      ],
      "name": "repayFunds",
      "outputs": [],
      "stateMutability": "nonpayable",
      "type": "function"
    },
    {
      "inputs": [],
      "name": "title",
      "outputs": [
        {
          "internalType": "string",
          "name": "",
          "type": "string"
        }
      ],
      "stateMutability": "view",
      "type": "function"
    },
    {
      "inputs": [
        {
          "internalType": "uint256",
          "name": "",
          "type": "uint256"
        }
      ],
      "name": "totalAmountWithdrawn",
      "outputs": [
        {
          "internalType": "uint256",
          "name": "",
          "type": "uint256"
        }
      ],
      "stateMutability": "view",
      "type": "function"
    },
    {
      "inputs": [
        {
          "internalType": "uint256",
          "name": "",
          "type": "uint256"
        }
      ],
      "name": "totalDAOs",
      "outputs": [
        {
          "internalType": "address",
          "name": "address1",
          "type": "address"
        },
        {
          "internalType": "address",
          "name": "address2",
          "type": "address"
        },
        {
          "internalType": "string",
          "name": "description",
          "type": "string"
        },
        {
          "internalType": "string",
          "name": "farmReports",
          "type": "string"
        },
        {
          "internalType": "string",
          "name": "financialReports",
          "type": "string"
        },
        {
          "internalType": "string",
          "name": "name",
          "type": "string"
        },
        {
          "internalType": "uint256",
          "name": "id",
          "type": "uint256"
        },
        {
          "internalType": "uint256",
          "name": "amountInvested",
          "type": "uint256"
        },
        {
          "internalType": "bool",
          "name": "verified",
          "type": "bool"
        }
      ],
      "stateMutability": "view",
      "type": "function"
    },
    {
      "inputs": [],
      "name": "totalInvestment",
      "outputs": [
        {
          "internalType": "uint256",
          "name": "",
          "type": "uint256"
        }
      ],
      "stateMutability": "view",
      "type": "function"
    },
    {
      "inputs": [
        {
          "internalType": "address",
          "name": "",
          "type": "address"
        }
      ],
      "name": "totalInvestmentByEachInvestor",
      "outputs": [
        {
          "internalType": "uint256",
          "name": "",
          "type": "uint256"
        }
      ],
      "stateMutability": "view",
      "type": "function"
    },
    {
      "inputs": [
        {
          "internalType": "address",
          "name": "",
          "type": "address"
        }
      ],
      "name": "totalNumberOfDaosByInvestor",
      "outputs": [
        {
          "internalType": "uint256",
          "name": "",
          "type": "uint256"
        }
      ],
      "stateMutability": "view",
      "type": "function"
    },
    {
      "inputs": [
        {
          "internalType": "uint256",
          "name": "daoId",
          "type": "uint256"
        }
      ],
      "name": "unverifyDao",
      "outputs": [],
      "stateMutability": "nonpayable",
      "type": "function"
    },
    {
      "inputs": [
        {
          "internalType": "uint256",
          "name": "daoId",
          "type": "uint256"
        }
      ],
      "name": "verifyDao",
      "outputs": [],
      "stateMutability": "nonpayable",
      "type": "function"
    },
    {
      "inputs": [
        {
          "internalType": "uint256",
          "name": "daoId",
          "type": "uint256"
        },
        {
          "internalType": "uint256",
          "name": "amountToWithdraw",
          "type": "uint256"
        }
      ],
      "name": "withDrawDFunds",
      "outputs": [],
      "stateMutability": "nonpayable",
      "type": "function"
    }
  ],
  "bytecode": "0x60806040523480156200001157600080fd5b506040516200512238038062005122833981810160405281019062000037919062000348565b8060009081620000489190620005e4565b50600a7313ef924eb7408e90278b86b659960afb00ddae619080600181540180825580915050600190039060005260206000200160009091909190916101000a81548173ffffffffffffffffffffffffffffffffffffffff021916908373ffffffffffffffffffffffffffffffffffffffff160217905550600a7323792579e2979a98d12a33a85e35914079304a569080600181540180825580915050600190039060005260206000200160009091909190916101000a81548173ffffffffffffffffffffffffffffffffffffffff021916908373ffffffffffffffffffffffffffffffffffffffff160217905550600a73dc4f6ea5856eda459286e8d0ef42e389d07137ff9080600181540180825580915050600190039060005260206000200160009091909190916101000a81548173ffffffffffffffffffffffffffffffffffffffff021916908373ffffffffffffffffffffffffffffffffffffffff16021790555050620006cb565b6000604051905090565b600080fd5b600080fd5b600080fd5b600080fd5b6000601f19601f8301169050919050565b7f4e487b7100000000000000000000000000000000000000000000000000000000600052604160045260246000fd5b6200021e82620001d3565b810181811067ffffffffffffffff8211171562000240576200023f620001e4565b5b80604052505050565b600062000255620001b5565b905062000263828262000213565b919050565b600067ffffffffffffffff821115620002865762000285620001e4565b5b6200029182620001d3565b9050602081019050919050565b60005b83811015620002be578082015181840152602081019050620002a1565b60008484015250505050565b6000620002e1620002db8462000268565b62000249565b9050828152602081018484840111156200030057620002ff620001ce565b5b6200030d8482856200029e565b509392505050565b600082601f8301126200032d576200032c620001c9565b5b81516200033f848260208601620002ca565b91505092915050565b600060208284031215620003615762000360620001bf565b5b600082015167ffffffffffffffff811115620003825762000381620001c4565b5b620003908482850162000315565b91505092915050565b600081519050919050565b7f4e487b7100000000000000000000000000000000000000000000000000000000600052602260045260246000fd5b60006002820490506001821680620003ec57607f821691505b602082108103620004025762000401620003a4565b5b50919050565b60008190508160005260206000209050919050565b60006020601f8301049050919050565b600082821b905092915050565b6000600883026200046c7fffffffffffffffffffffffffffffffffffffffffffffffffffffffffffffffff826200042d565b6200047886836200042d565b95508019841693508086168417925050509392505050565b6000819050919050565b6000819050919050565b6000620004c5620004bf620004b98462000490565b6200049a565b62000490565b9050919050565b6000819050919050565b620004e183620004a4565b620004f9620004f082620004cc565b8484546200043a565b825550505050565b600090565b6200051062000501565b6200051d818484620004d6565b505050565b5b8181101562000545576200053960008262000506565b60018101905062000523565b5050565b601f82111562000594576200055e8162000408565b62000569846200041d565b8101602085101562000579578190505b6200059162000588856200041d565b83018262000522565b50505b505050565b600082821c905092915050565b6000620005b96000198460080262000599565b1980831691505092915050565b6000620005d48383620005a6565b9150826002028217905092915050565b620005ef8262000399565b67ffffffffffffffff8111156200060b576200060a620001e4565b5b620006178254620003d3565b6200062482828562000549565b600060209050601f8311600181146200065c576000841562000647578287015190505b620006538582620005c6565b865550620006c3565b601f1984166200066c8662000408565b60005b8281101562000696578489015182556001820191506020850194506020810190506200066f565b86831015620006b65784890151620006b2601f891682620005a6565b8355505b6001600288020188555050505b505050505050565b614a4780620006db6000396000f3fe6080604052600436106102045760003560e01c806393cead5e11610118578063ccbbd260116100a0578063da9dd8bf1161006f578063da9dd8bf1461081b578063eb352c8114610858578063ec3246a214610881578063f3f0cd91146108aa578063fe714f64146108d557610204565b8063ccbbd26014610729578063ce99886d1461076e578063d19fa48e14610799578063d840b4df146107d657610204565b8063aa5b6d4c116100e7578063aa5b6d4c14610642578063b3afc4391461066d578063c89e6eca14610698578063c9525567146106d5578063ca3f04b0146106fe57610204565b806393cead5e1461054e57806396b988621461058b5780639abad058146105c85780639c5f83851461060557610204565b80634c54114c1161019b5780635e60ab901161016a5780635e60ab9014610478578063610c8ced146104a1578063808237cc146104bd5780638da5cb5b146104fa57806393b16be11461052557610204565b80634c54114c146103a857806352ff15cd146103d357806355460972146103fe578063574eb0331461043b57610204565b80632b925b25116101d75780632b925b25146102d857806334422a47146103035780633adfa93b146103405780634a79d50c1461037d57610204565b80630796ed391461020957806310ea13df146102465780631cb70fb9146102715780631da7180d1461029a575b600080fd5b34801561021557600080fd5b50610230600480360381019061022b9190613395565b6108fe565b60405161023d91906133db565b60405180910390f35b34801561025257600080fd5b5061025b610947565b60405161026891906133db565b60405180910390f35b34801561027d57600080fd5b5061029860048036038101906102939190613422565b61094d565b005b3480156102a657600080fd5b506102c160048036038101906102bc9190613422565b610ee1565b6040516102cf9291906134ee565b60405180910390f35b3480156102e457600080fd5b506102ed610fbd565b6040516102fa91906133db565b60405180910390f35b34801561030f57600080fd5b5061032a60048036038101906103259190613422565b610fc3565b60405161033791906133db565b60405180910390f35b34801561034c57600080fd5b5061036760048036038101906103629190613395565b610fe3565b60405161037491906133db565b60405180910390f35b34801561038957600080fd5b50610392610ffb565b60405161039f919061351e565b60405180910390f35b3480156103b457600080fd5b506103bd611089565b6040516103ca91906133db565b60405180910390f35b3480156103df57600080fd5b506103e861108f565b6040516103f591906135fe565b60405180910390f35b34801561040a57600080fd5b5061042560048036038101906104209190613422565b61111d565b60405161043291906133db565b60405180910390f35b34801561044757600080fd5b50610462600480360381019061045d9190613620565b611135565b60405161046f9190613660565b60405180910390f35b34801561048457600080fd5b5061049f600480360381019061049a9190613422565b611183565b005b6104bb60048036038101906104b69190613422565b61128b565b005b3480156104c957600080fd5b506104e460048036038101906104df9190613395565b611512565b6040516104f191906133db565b60405180910390f35b34801561050657600080fd5b5061050f61155b565b60405161051c9190613660565b60405180910390f35b34801561053157600080fd5b5061054c600480360381019061054791906137b0565b611581565b005b34801561055a57600080fd5b5061057560048036038101906105709190613422565b611b39565b60405161058291906133db565b60405180910390f35b34801561059757600080fd5b506105b260048036038101906105ad9190613395565b611b5e565b6040516105bf91906133db565b60405180910390f35b3480156105d457600080fd5b506105ef60048036038101906105ea9190613620565b611b76565b6040516105fc91906133db565b60405180910390f35b34801561061157600080fd5b5061062c60048036038101906106279190613395565b611b9b565b60405161063991906138c8565b60405180910390f35b34801561064e57600080fd5b50610657611c50565b6040516106649190613b72565b60405180910390f35b34801561067957600080fd5b506106826120d1565b60405161068f91906138c8565b60405180910390f35b3480156106a457600080fd5b506106bf60048036038101906106ba9190613422565b6120e4565b6040516106cc91906133db565b60405180910390f35b3480156106e157600080fd5b506106fc60048036038101906106f79190613422565b612101565b005b34801561070a57600080fd5b50610713612209565b6040516107209190613c93565b60405180910390f35b34801561073557600080fd5b50610750600480360381019061074b9190613422565b6123fa565b60405161076599989796959493929190613cb5565b60405180910390f35b34801561077a57600080fd5b506107836126b5565b6040516107909190613660565b60405180910390f35b3480156107a557600080fd5b506107c060048036038101906107bb9190613395565b6126db565b6040516107cd91906133db565b60405180910390f35b3480156107e257600080fd5b506107fd60048036038101906107f89190613422565b6126f3565b60405161081299989796959493929190613cb5565b60405180910390f35b34801561082757600080fd5b50610842600480360381019061083d9190613395565b6129be565b60405161084f91906138c8565b60405180910390f35b34801561086457600080fd5b5061087f600480360381019061087a9190613d5e565b612a6c565b005b34801561088d57600080fd5b506108a860048036038101906108a39190613d9e565b612ca1565b005b3480156108b657600080fd5b506108bf612dec565b6040516108cc9190613660565b60405180910390f35b3480156108e157600080fd5b506108fc60048036038101906108f79190613d5e565b612e12565b005b6000600f60008373ffffffffffffffffffffffffffffffffffffffff1673ffffffffffffffffffffffffffffffffffffffff168152602001908152602001600020549050919050565b60045481565b610956336129be565b610995576040517f08c379a000000000000000000000000000000000000000000000000000000000815260040161098c90613e33565b60405180910390fd5b6000811180156109a757506008548111155b6109e6576040517f08c379a00000000000000000000000000000000000000000000000000000000081526004016109dd90613e9f565b60405180910390fd5b6000600d600083815260200190815260200160002090508060090160009054906101000a900460ff1615610a4f576040517f08c379a0000000000000000000000000000000000000000000000000000000008152600401610a4690613f0b565b60405180910390fd5b6000600183610a5e9190613f5a565b90506009805490508110610aa7576040517f08c379a0000000000000000000000000000000000000000000000000000000008152600401610a9e90613fda565b60405180910390fd5b8260098281548110610abc57610abb613ffa565b5b90600052602060002090600a02016006015414610b0e576040517f08c379a0000000000000000000000000000000000000000000000000000000008152600401610b0590614075565b60405180910390fd5b60096001600980549050610b229190613f5a565b81548110610b3357610b32613ffa565b5b90600052602060002090600a020160098281548110610b5557610b54613ffa565b5b90600052602060002090600a02016000820160009054906101000a900473ffffffffffffffffffffffffffffffffffffffff168160000160006101000a81548173ffffffffffffffffffffffffffffffffffffffff021916908373ffffffffffffffffffffffffffffffffffffffff1602179055506001820160009054906101000a900473ffffffffffffffffffffffffffffffffffffffff168160010160006101000a81548173ffffffffffffffffffffffffffffffffffffffff021916908373ffffffffffffffffffffffffffffffffffffffff16021790555060028201816002019081610c4591906142b7565b5060038201816003019081610c5a91906142b7565b5060048201816004019081610c6f91906142b7565b5060058201816005019081610c8491906142b7565b5060068201548160060155600782015481600701556008820181600801908054610caf929190613118565b506009820160009054906101000a900460ff168160090160006101000a81548160ff0219169083151502179055509050506009805480610cf257610cf161439f565b5b60019003818190600052602060002090600a0201600080820160006101000a81549073ffffffffffffffffffffffffffffffffffffffff02191690556001820160006101000a81549073ffffffffffffffffffffffffffffffffffffffff0219169055600282016000610d65919061316a565b600382016000610d75919061316a565b600482016000610d85919061316a565b600582016000610d95919061316a565b60068201600090556007820160009055600882016000610db591906131aa565b6009820160006101000a81549060ff021916905550509055600d6000848152602001908152602001600020600080820160006101000a81549073ffffffffffffffffffffffffffffffffffffffff02191690556001820160006101000a81549073ffffffffffffffffffffffffffffffffffffffff0219169055600282016000610e3f919061316a565b600382016000610e4f919061316a565b600482016000610e5f919061316a565b600582016000610e6f919061316a565b60068201600090556007820160009055600882016000610e8f91906131aa565b6009820160006101000a81549060ff021916905550507fa06f724666d0a2bde56689ccf4d2e4b5e3e76d852cf31aa25c2e214db33ffe5f83604051610ed491906133db565b60405180910390a1505050565b600b8181548110610ef157600080fd5b90600052602060002090600202016000915090508060000160009054906101000a900473ffffffffffffffffffffffffffffffffffffffff1690806001018054610f3a906140c4565b80601f0160208091040260200160405190810160405280929190818152602001828054610f66906140c4565b8015610fb35780601f10610f8857610100808354040283529160200191610fb3565b820191906000526020600020905b815481529060010190602001808311610f9657829003601f168201915b5050505050905082565b60055481565b6000600d6000838152602001908152602001600020600701549050919050565b600f6020528060005260406000206000915090505481565b60008054611008906140c4565b80601f0160208091040260200160405190810160405280929190818152602001828054611034906140c4565b80156110815780601f1061105657610100808354040283529160200191611081565b820191906000526020600020905b81548152906001019060200180831161106457829003601f168201915b505050505081565b60085481565b6060600a80548060200260200160405190810160405280929190818152602001828054801561111357602002820191906000526020600020905b8160009054906101000a900473ffffffffffffffffffffffffffffffffffffffff1673ffffffffffffffffffffffffffffffffffffffff16815260200190600101908083116110c9575b5050505050905090565b60106020528060005260406000206000915090505481565b600c602052816000526040600020818154811061115157600080fd5b906000526020600020016000915091509054906101000a900473ffffffffffffffffffffffffffffffffffffffff1681565b61118c336129be565b6111cb576040517f08c379a00000000000000000000000000000000000000000000000000000000081526004016111c290613e33565b60405180910390fd5b6000811180156111dd57506008548111155b61121c576040517f08c379a000000000000000000000000000000000000000000000000000000000815260040161121390613e9f565b60405180910390fd5b6000600d6000838152602001908152602001600020905060008160090160006101000a81548160ff0219169083151502179055507fa06f724666d0a2bde56689ccf4d2e4b5e3e76d852cf31aa25c2e214db33ffe5f8260405161127f91906133db565b60405180910390a15050565b6000600d600083815260200190815260200160002090508060000160009054906101000a900473ffffffffffffffffffffffffffffffffffffffff1673ffffffffffffffffffffffffffffffffffffffff163373ffffffffffffffffffffffffffffffffffffffff161415801561135257508060010160009054906101000a900473ffffffffffffffffffffffffffffffffffffffff1673ffffffffffffffffffffffffffffffffffffffff163373ffffffffffffffffffffffffffffffffffffffff1614155b611391576040517f08c379a000000000000000000000000000000000000000000000000000000000815260040161138890614440565b60405180910390fd5b348160070160008282546113a59190614460565b9250508190555080600801339080600181540180825580915050600190039060005260206000200160009091909190916101000a81548173ffffffffffffffffffffffffffffffffffffffff021916908373ffffffffffffffffffffffffffffffffffffffff16021790555034600e60003373ffffffffffffffffffffffffffffffffffffffff1673ffffffffffffffffffffffffffffffffffffffff16815260200190815260200160002060008282546114609190614460565b92505081905550600f60003373ffffffffffffffffffffffffffffffffffffffff1673ffffffffffffffffffffffffffffffffffffffff16815260200190815260200160002060008154809291906114b790614494565b919050555034600460008282546114ce9190614460565b925050819055507f0e9450c60b5852553342ccda7c9307802902542d41f8d2a9d1d4e0d13e97355c33346040516115069291906144dc565b60405180910390a15050565b6000600e60008373ffffffffffffffffffffffffffffffffffffffff1673ffffffffffffffffffffffffffffffffffffffff168152602001908152602001600020549050919050565b600360009054906101000a900473ffffffffffffffffffffffffffffffffffffffff1681565b6115c06040518060400160405280600e81526020017f4164647265737320312069733a2000000000000000000000000000000000000081525087613053565b6115ff6040518060400160405280600e81526020017f4164647265737320322069733a2000000000000000000000000000000000000081525086613053565b6008600081548092919061161290614494565b9190505550600080600854905060006040518061014001604052808a73ffffffffffffffffffffffffffffffffffffffff1681526020018973ffffffffffffffffffffffffffffffffffffffff168152602001888152602001868152602001858152602001878152602001838152602001848152602001600067ffffffffffffffff8111156116a4576116a3613685565b5b6040519080825280602002602001820160405280156116d25781602001602082028036833780820191505090505b50815260200160001515815250905080600d600084815260200190815260200160002060008201518160000160006101000a81548173ffffffffffffffffffffffffffffffffffffffff021916908373ffffffffffffffffffffffffffffffffffffffff16021790555060208201518160010160006101000a81548173ffffffffffffffffffffffffffffffffffffffff021916908373ffffffffffffffffffffffffffffffffffffffff16021790555060408201518160020190816117989190614505565b5060608201518160030190816117ae9190614505565b5060808201518160040190816117c49190614505565b5060a08201518160050190816117da9190614505565b5060c0820151816006015560e0820151816007015561010082015181600801908051906020019061180c9291906131cb565b506101208201518160090160006101000a81548160ff02191690831515021790555090505060098190806001815401808255809150506001900390600052602060002090600a020160009091909190915060008201518160000160006101000a81548173ffffffffffffffffffffffffffffffffffffffff021916908373ffffffffffffffffffffffffffffffffffffffff16021790555060208201518160010160006101000a81548173ffffffffffffffffffffffffffffffffffffffff021916908373ffffffffffffffffffffffffffffffffffffffff16021790555060408201518160020190816119009190614505565b5060608201518160030190816119169190614505565b50608082015181600401908161192c9190614505565b5060a08201518160050190816119429190614505565b5060c0820151816006015560e082015181600701556101008201518160080190805190602001906119749291906131cb565b506101208201518160090160006101000a81548160ff0219169083151502179055505050600c60003073ffffffffffffffffffffffffffffffffffffffff1673ffffffffffffffffffffffffffffffffffffffff168152602001908152602001600020899080600181540180825580915050600190039060005260206000200160009091909190916101000a81548173ffffffffffffffffffffffffffffffffffffffff021916908373ffffffffffffffffffffffffffffffffffffffff160217905550600c60003073ffffffffffffffffffffffffffffffffffffffff1673ffffffffffffffffffffffffffffffffffffffff168152602001908152602001600020889080600181540180825580915050600190039060005260206000200160009091909190916101000a81548173ffffffffffffffffffffffffffffffffffffffff021916908373ffffffffffffffffffffffffffffffffffffffff1602179055506001600760006101000a81548160ff0219169083151502179055507f0acd9bdc7b641798c00bfa4f97f5c6c7dee74f9d8edde3bceb1294505b1db658898388604051611b26939291906145d7565b60405180910390a1505050505050505050565b600080600d600084815260200190815260200160002090508060070154915050919050565b60066020528060005260406000206000915090505481565b6011602052816000526040600020602052806000526040600020600091509150505481565b600080600090505b600b80549050811015611c45578273ffffffffffffffffffffffffffffffffffffffff16600b8281548110611bdb57611bda613ffa565b5b906000526020600020906002020160000160009054906101000a900473ffffffffffffffffffffffffffffffffffffffff1673ffffffffffffffffffffffffffffffffffffffff1603611c32576001915050611c4b565b8080611c3d90614494565b915050611ba3565b50600090505b919050565b6060600060085467ffffffffffffffff811115611c7057611c6f613685565b5b604051908082528060200260200182016040528015611ca957816020015b611c96613255565b815260200190600190039081611c8e5790505b5090506000600190505b60085481116120c957600d6000828152602001908152602001600020604051806101400160405290816000820160009054906101000a900473ffffffffffffffffffffffffffffffffffffffff1673ffffffffffffffffffffffffffffffffffffffff1673ffffffffffffffffffffffffffffffffffffffff1681526020016001820160009054906101000a900473ffffffffffffffffffffffffffffffffffffffff1673ffffffffffffffffffffffffffffffffffffffff1673ffffffffffffffffffffffffffffffffffffffff168152602001600282018054611d97906140c4565b80601f0160208091040260200160405190810160405280929190818152602001828054611dc3906140c4565b8015611e105780601f10611de557610100808354040283529160200191611e10565b820191906000526020600020905b815481529060010190602001808311611df357829003601f168201915b50505050508152602001600382018054611e29906140c4565b80601f0160208091040260200160405190810160405280929190818152602001828054611e55906140c4565b8015611ea25780601f10611e7757610100808354040283529160200191611ea2565b820191906000526020600020905b815481529060010190602001808311611e8557829003601f168201915b50505050508152602001600482018054611ebb906140c4565b80601f0160208091040260200160405190810160405280929190818152602001828054611ee7906140c4565b8015611f345780601f10611f0957610100808354040283529160200191611f34565b820191906000526020600020905b815481529060010190602001808311611f1757829003601f168201915b50505050508152602001600582018054611f4d906140c4565b80601f0160208091040260200160405190810160405280929190818152602001828054611f79906140c4565b8015611fc65780601f10611f9b57610100808354040283529160200191611fc6565b820191906000526020600020905b815481529060010190602001808311611fa957829003601f168201915b5050505050815260200160068201548152602001600782015481526020016008820180548060200260200160405190810160405280929190818152602001828054801561206857602002820191906000526020600020905b8160009054906101000a900473ffffffffffffffffffffffffffffffffffffffff1673ffffffffffffffffffffffffffffffffffffffff168152602001906001019080831161201e575b505050505081526020016009820160009054906101000a900460ff1615151515815250508260018361209a9190613f5a565b815181106120ab576120aa613ffa565b5b602002602001018190525080806120c190614494565b915050611cb3565b508091505090565b600760009054906101000a900460ff1681565b600060106000838152602001908152602001600020549050919050565b61210a336129be565b612149576040517f08c379a000000000000000000000000000000000000000000000000000000000815260040161214090613e33565b60405180910390fd5b60008111801561215b57506008548111155b61219a576040517f08c379a000000000000000000000000000000000000000000000000000000000815260040161219190613e9f565b60405180910390fd5b6000600d6000838152602001908152602001600020905060018160090160006101000a81548160ff0219169083151502179055507fa06f724666d0a2bde56689ccf4d2e4b5e3e76d852cf31aa25c2e214db33ffe5f826040516121fd91906133db565b60405180910390a15050565b60606000600b8054905067ffffffffffffffff81111561222c5761222b613685565b5b60405190808252806020026020018201604052801561226557816020015b6122526132d6565b81526020019060019003908161224a5790505b50905060005b600b805490508110156123f257600b818154811061228c5761228b613ffa565b5b906000526020600020906002020160000160009054906101000a900473ffffffffffffffffffffffffffffffffffffffff168282815181106122d1576122d0613ffa565b5b60200260200101516000019073ffffffffffffffffffffffffffffffffffffffff16908173ffffffffffffffffffffffffffffffffffffffff1681525050600b818154811061232357612322613ffa565b5b9060005260206000209060020201600101805461233f906140c4565b80601f016020809104026020016040519081016040528092919081815260200182805461236b906140c4565b80156123b85780601f1061238d576101008083540402835291602001916123b8565b820191906000526020600020905b81548152906001019060200180831161239b57829003601f168201915b50505050508282815181106123d0576123cf613ffa565b5b60200260200101516020018190525080806123ea90614494565b91505061226b565b508091505090565b600d6020528060005260406000206000915090508060000160009054906101000a900473ffffffffffffffffffffffffffffffffffffffff16908060010160009054906101000a900473ffffffffffffffffffffffffffffffffffffffff1690806002018054612469906140c4565b80601f0160208091040260200160405190810160405280929190818152602001828054612495906140c4565b80156124e25780601f106124b7576101008083540402835291602001916124e2565b820191906000526020600020905b8154815290600101906020018083116124c557829003601f168201915b5050505050908060030180546124f7906140c4565b80601f0160208091040260200160405190810160405280929190818152602001828054612523906140c4565b80156125705780601f1061254557610100808354040283529160200191612570565b820191906000526020600020905b81548152906001019060200180831161255357829003601f168201915b505050505090806004018054612585906140c4565b80601f01602080910402602001604051908101604052809291908181526020018280546125b1906140c4565b80156125fe5780601f106125d3576101008083540402835291602001916125fe565b820191906000526020600020905b8154815290600101906020018083116125e157829003601f168201915b505050505090806005018054612613906140c4565b80601f016020809104026020016040519081016040528092919081815260200182805461263f906140c4565b801561268c5780601f106126615761010080835404028352916020019161268c565b820191906000526020600020905b81548152906001019060200180831161266f57829003601f168201915b5050505050908060060154908060070154908060090160009054906101000a900460ff16905089565b600160009054906101000a900473ffffffffffffffffffffffffffffffffffffffff1681565b600e6020528060005260406000206000915090505481565b6009818154811061270357600080fd5b90600052602060002090600a02016000915090508060000160009054906101000a900473ffffffffffffffffffffffffffffffffffffffff16908060010160009054906101000a900473ffffffffffffffffffffffffffffffffffffffff1690806002018054612772906140c4565b80601f016020809104026020016040519081016040528092919081815260200182805461279e906140c4565b80156127eb5780601f106127c0576101008083540402835291602001916127eb565b820191906000526020600020905b8154815290600101906020018083116127ce57829003601f168201915b505050505090806003018054612800906140c4565b80601f016020809104026020016040519081016040528092919081815260200182805461282c906140c4565b80156128795780601f1061284e57610100808354040283529160200191612879565b820191906000526020600020905b81548152906001019060200180831161285c57829003601f168201915b50505050509080600401805461288e906140c4565b80601f01602080910402602001604051908101604052809291908181526020018280546128ba906140c4565b80156129075780601f106128dc57610100808354040283529160200191612907565b820191906000526020600020905b8154815290600101906020018083116128ea57829003601f168201915b50505050509080600501805461291c906140c4565b80601f0160208091040260200160405190810160405280929190818152602001828054612948906140c4565b80156129955780601f1061296a57610100808354040283529160200191612995565b820191906000526020600020905b81548152906001019060200180831161297857829003601f168201915b5050505050908060060154908060070154908060090160009054906101000a900460ff16905089565b600080600090505b600a80549050811015612a61578273ffffffffffffffffffffffffffffffffffffffff16600a82815481106129fe576129fd613ffa565b5b9060005260206000200160009054906101000a900473ffffffffffffffffffffffffffffffffffffffff1673ffffffffffffffffffffffffffffffffffffffff1603612a4e576001915050612a67565b8080612a5990614494565b9150506129c6565b50600090505b919050565b6000600d600084815260200190815260200160002090508060000160009054906101000a900473ffffffffffffffffffffffffffffffffffffffff1673ffffffffffffffffffffffffffffffffffffffff163373ffffffffffffffffffffffffffffffffffffffff161480612b3057508060010160009054906101000a900473ffffffffffffffffffffffffffffffffffffffff1673ffffffffffffffffffffffffffffffffffffffff163373ffffffffffffffffffffffffffffffffffffffff16145b612b6f576040517f08c379a0000000000000000000000000000000000000000000000000000000008152600401612b6690614661565b60405180910390fd5b6010600084815260200190815260200160002054821115612bc5576040517f08c379a0000000000000000000000000000000000000000000000000000000008152600401612bbc906146f3565b60405180910390fd5b81601060008581526020019081526020016000206000828254612be89190613f5a565b9250508190555060003073ffffffffffffffffffffffffffffffffffffffff1683604051612c1590614744565b60006040518083038185875af1925050503d8060008114612c52576040519150601f19603f3d011682016040523d82523d6000602084013e612c57565b606091505b5050905080612c9b576040517f08c379a0000000000000000000000000000000000000000000000000000000008152600401612c92906147a5565b60405180910390fd5b50505050565b6000815111612ce5576040517f08c379a0000000000000000000000000000000000000000000000000000000008152600401612cdc90614811565b60405180910390fd5b612cee33611b9b565b15612d2e576040517f08c379a0000000000000000000000000000000000000000000000000000000008152600401612d259061487d565b60405180910390fd5b600060405180604001604052803373ffffffffffffffffffffffffffffffffffffffff168152602001838152509050600b81908060018154018082558091505060019003906000526020600020906002020160009091909190915060008201518160000160006101000a81548173ffffffffffffffffffffffffffffffffffffffff021916908373ffffffffffffffffffffffffffffffffffffffff1602179055506020820151816001019081612de59190614505565b5050505050565b600260009054906101000a900473ffffffffffffffffffffffffffffffffffffffff1681565b6000600d600084815260200190815260200160002090508060000160009054906101000a900473ffffffffffffffffffffffffffffffffffffffff1673ffffffffffffffffffffffffffffffffffffffff163373ffffffffffffffffffffffffffffffffffffffff161480612ed657508060010160009054906101000a900473ffffffffffffffffffffffffffffffffffffffff1673ffffffffffffffffffffffffffffffffffffffff163373ffffffffffffffffffffffffffffffffffffffff16145b612f15576040517f08c379a0000000000000000000000000000000000000000000000000000000008152600401612f0c906148e9565b60405180910390fd5b8060070154821115612f5c576040517f08c379a0000000000000000000000000000000000000000000000000000000008152600401612f5390614955565b60405180910390fd5b81816007016000828254612f709190613f5a565b9250508190555081601060008581526020019081526020016000206000828254612f9a9190614460565b9250508190555060003373ffffffffffffffffffffffffffffffffffffffff1683604051612fc790614744565b60006040518083038185875af1925050503d8060008114613004576040519150601f19603f3d011682016040523d82523d6000602084013e613009565b606091505b505090508061304d576040517f08c379a0000000000000000000000000000000000000000000000000000000008152600401613044906149c1565b60405180910390fd5b50505050565b6130eb82826040516024016130699291906149e1565b6040516020818303038152906040527f319af333000000000000000000000000000000000000000000000000000000007bffffffffffffffffffffffffffffffffffffffffffffffffffffffff19166020820180517bffffffffffffffffffffffffffffffffffffffffffffffffffffffff83818316178352505050506130ef565b5050565b60008151905060006a636f6e736f6c652e6c6f679050602083016000808483855afa5050505050565b8280548282559060005260206000209081019282156131595760005260206000209182015b8281111561315857825482559160010191906001019061313d565b5b5090506131669190613306565b5090565b508054613176906140c4565b6000825580601f1061318857506131a7565b601f0160209004906000526020600020908101906131a69190613306565b5b50565b50805460008255906000526020600020908101906131c89190613306565b50565b828054828255906000526020600020908101928215613244579160200282015b828111156132435782518260006101000a81548173ffffffffffffffffffffffffffffffffffffffff021916908373ffffffffffffffffffffffffffffffffffffffff160217905550916020019190600101906131eb565b5b5090506132519190613306565b5090565b604051806101400160405280600073ffffffffffffffffffffffffffffffffffffffff168152602001600073ffffffffffffffffffffffffffffffffffffffff168152602001606081526020016060815260200160608152602001606081526020016000815260200160008152602001606081526020016000151581525090565b6040518060400160405280600073ffffffffffffffffffffffffffffffffffffffff168152602001606081525090565b5b8082111561331f576000816000905550600101613307565b5090565b6000604051905090565b600080fd5b600080fd5b600073ffffffffffffffffffffffffffffffffffffffff82169050919050565b600061336282613337565b9050919050565b61337281613357565b811461337d57600080fd5b50565b60008135905061338f81613369565b92915050565b6000602082840312156133ab576133aa61332d565b5b60006133b984828501613380565b91505092915050565b6000819050919050565b6133d5816133c2565b82525050565b60006020820190506133f060008301846133cc565b92915050565b6133ff816133c2565b811461340a57600080fd5b50565b60008135905061341c816133f6565b92915050565b6000602082840312156134385761343761332d565b5b60006134468482850161340d565b91505092915050565b61345881613357565b82525050565b600081519050919050565b600082825260208201905092915050565b60005b8381101561349857808201518184015260208101905061347d565b60008484015250505050565b6000601f19601f8301169050919050565b60006134c08261345e565b6134ca8185613469565b93506134da81856020860161347a565b6134e3816134a4565b840191505092915050565b6000604082019050613503600083018561344f565b818103602083015261351581846134b5565b90509392505050565b6000602082019050818103600083015261353881846134b5565b905092915050565b600081519050919050565b600082825260208201905092915050565b6000819050602082019050919050565b61357581613357565b82525050565b6000613587838361356c565b60208301905092915050565b6000602082019050919050565b60006135ab82613540565b6135b5818561354b565b93506135c08361355c565b8060005b838110156135f15781516135d8888261357b565b97506135e383613593565b9250506001810190506135c4565b5085935050505092915050565b6000602082019050818103600083015261361881846135a0565b905092915050565b600080604083850312156136375761363661332d565b5b600061364585828601613380565b92505060206136568582860161340d565b9150509250929050565b6000602082019050613675600083018461344f565b92915050565b600080fd5b600080fd5b7f4e487b7100000000000000000000000000000000000000000000000000000000600052604160045260246000fd5b6136bd826134a4565b810181811067ffffffffffffffff821117156136dc576136db613685565b5b80604052505050565b60006136ef613323565b90506136fb82826136b4565b919050565b600067ffffffffffffffff82111561371b5761371a613685565b5b613724826134a4565b9050602081019050919050565b82818337600083830152505050565b600061375361374e84613700565b6136e5565b90508281526020810184848401111561376f5761376e613680565b5b61377a848285613731565b509392505050565b600082601f8301126137975761379661367b565b5b81356137a7848260208601613740565b91505092915050565b60008060008060008060c087890312156137cd576137cc61332d565b5b60006137db89828a01613380565b96505060206137ec89828a01613380565b955050604087013567ffffffffffffffff81111561380d5761380c613332565b5b61381989828a01613782565b945050606087013567ffffffffffffffff81111561383a57613839613332565b5b61384689828a01613782565b935050608087013567ffffffffffffffff81111561386757613866613332565b5b61387389828a01613782565b92505060a087013567ffffffffffffffff81111561389457613893613332565b5b6138a089828a01613782565b9150509295509295509295565b60008115159050919050565b6138c2816138ad565b82525050565b60006020820190506138dd60008301846138b9565b92915050565b600081519050919050565b600082825260208201905092915050565b6000819050602082019050919050565b600082825260208201905092915050565b600061392b8261345e565b613935818561390f565b935061394581856020860161347a565b61394e816134a4565b840191505092915050565b613962816133c2565b82525050565b600082825260208201905092915050565b600061398482613540565b61398e8185613968565b93506139998361355c565b8060005b838110156139ca5781516139b1888261357b565b97506139bc83613593565b92505060018101905061399d565b5085935050505092915050565b6139e0816138ad565b82525050565b6000610140830160008301516139ff600086018261356c565b506020830151613a12602086018261356c565b5060408301518482036040860152613a2a8282613920565b91505060608301518482036060860152613a448282613920565b91505060808301518482036080860152613a5e8282613920565b91505060a083015184820360a0860152613a788282613920565b91505060c0830151613a8d60c0860182613959565b5060e0830151613aa060e0860182613959565b50610100830151848203610100860152613aba8282613979565b915050610120830151613ad16101208601826139d7565b508091505092915050565b6000613ae883836139e6565b905092915050565b6000602082019050919050565b6000613b08826138e3565b613b1281856138ee565b935083602082028501613b24856138ff565b8060005b85811015613b605784840389528151613b418582613adc565b9450613b4c83613af0565b925060208a01995050600181019050613b28565b50829750879550505050505092915050565b60006020820190508181036000830152613b8c8184613afd565b905092915050565b600081519050919050565b600082825260208201905092915050565b6000819050602082019050919050565b6000604083016000830151613bd8600086018261356c565b5060208301518482036020860152613bf08282613920565b9150508091505092915050565b6000613c098383613bc0565b905092915050565b6000602082019050919050565b6000613c2982613b94565b613c338185613b9f565b935083602082028501613c4585613bb0565b8060005b85811015613c815784840389528151613c628582613bfd565b9450613c6d83613c11565b925060208a01995050600181019050613c49565b50829750879550505050505092915050565b60006020820190508181036000830152613cad8184613c1e565b905092915050565b600061012082019050613ccb600083018c61344f565b613cd8602083018b61344f565b8181036040830152613cea818a6134b5565b90508181036060830152613cfe81896134b5565b90508181036080830152613d1281886134b5565b905081810360a0830152613d2681876134b5565b9050613d3560c08301866133cc565b613d4260e08301856133cc565b613d506101008301846138b9565b9a9950505050505050505050565b60008060408385031215613d7557613d7461332d565b5b6000613d838582860161340d565b9250506020613d948582860161340d565b9150509250929050565b600060208284031215613db457613db361332d565b5b600082013567ffffffffffffffff811115613dd257613dd1613332565b5b613dde84828501613782565b91505092915050565b7f556e617574686f72697a65642061636365737300000000000000000000000000600082015250565b6000613e1d601383613469565b9150613e2882613de7565b602082019050919050565b60006020820190508181036000830152613e4c81613e10565b9050919050565b7f496e76616c69642044414f204944000000000000000000000000000000000000600082015250565b6000613e89600e83613469565b9150613e9482613e53565b602082019050919050565b60006020820190508181036000830152613eb881613e7c565b9050919050565b7f43616e6e6f742072656d6f766520612076657269666965642044414f00000000600082015250565b6000613ef5601c83613469565b9150613f0082613ebf565b602082019050919050565b60006020820190508181036000830152613f2481613ee8565b9050919050565b7f4e487b7100000000000000000000000000000000000000000000000000000000600052601160045260246000fd5b6000613f65826133c2565b9150613f70836133c2565b9250828203905081811115613f8857613f87613f2b565b5b92915050565b7f496e76616c696420696e64657800000000000000000000000000000000000000600082015250565b6000613fc4600d83613469565b9150613fcf82613f8e565b602082019050919050565b60006020820190508181036000830152613ff381613fb7565b9050919050565b7f4e487b7100000000000000000000000000000000000000000000000000000000600052603260045260246000fd5b7f496e76616c69642044414f20494420696e20746f74616c44414f730000000000600082015250565b600061405f601b83613469565b915061406a82614029565b602082019050919050565b6000602082019050818103600083015261408e81614052565b9050919050565b7f4e487b7100000000000000000000000000000000000000000000000000000000600052602260045260246000fd5b600060028204905060018216806140dc57607f821691505b6020821081036140ef576140ee614095565b5b50919050565b600081549050614104816140c4565b9050919050565b60008190508160005260206000209050919050565b60006020601f8301049050919050565b600082821b905092915050565b60006008830261416d7fffffffffffffffffffffffffffffffffffffffffffffffffffffffffffffffff82614130565b6141778683614130565b95508019841693508086168417925050509392505050565b6000819050919050565b60006141b46141af6141aa846133c2565b61418f565b6133c2565b9050919050565b6000819050919050565b6141ce83614199565b6141e26141da826141bb565b84845461413d565b825550505050565b600090565b6141f76141ea565b6142028184846141c5565b505050565b5b818110156142265761421b6000826141ef565b600181019050614208565b5050565b601f82111561426b5761423c8161410b565b61424584614120565b81016020851015614254578190505b61426861426085614120565b830182614207565b50505b505050565b600082821c905092915050565b600061428e60001984600802614270565b1980831691505092915050565b60006142a7838361427d565b9150826002028217905092915050565b8181036142c557505061439d565b6142ce826140f5565b67ffffffffffffffff8111156142e7576142e6613685565b5b6142f182546140c4565b6142fc82828561422a565b6000601f83116001811461432b5760008415614319578287015490505b614323858261429b565b865550614396565b601f1984166143398761410b565b96506143448661410b565b60005b8281101561436c57848901548255600182019150600185019450602081019050614347565b868310156143895784890154614385601f89168261427d565b8355505b6001600288020188555050505b5050505050505b565b7f4e487b7100000000000000000000000000000000000000000000000000000000600052603160045260246000fd5b7f4f6e6c7920616464726573736573207468617420686176656e2774206a6f696e60008201527f6564207468652044414f2063616e20696e766573742e00000000000000000000602082015250565b600061442a603683613469565b9150614435826143ce565b604082019050919050565b600060208201905081810360008301526144598161441d565b9050919050565b600061446b826133c2565b9150614476836133c2565b925082820190508082111561448e5761448d613f2b565b5b92915050565b600061449f826133c2565b91507fffffffffffffffffffffffffffffffffffffffffffffffffffffffffffffffff82036144d1576144d0613f2b565b5b600182019050919050565b60006040820190506144f1600083018561344f565b6144fe60208301846133cc565b9392505050565b61450e8261345e565b67ffffffffffffffff81111561452757614526613685565b5b61453182546140c4565b61453c82828561422a565b600060209050601f83116001811461456f576000841561455d578287015190505b614567858261429b565b8655506145cf565b601f19841661457d8661410b565b60005b828110156145a557848901518255600182019150602085019450602081019050614580565b868310156145c257848901516145be601f89168261427d565b8355505b6001600288020188555050505b505050505050565b60006060820190506145ec600083018661344f565b6145f960208301856133cc565b818103604083015261460b81846134b5565b9050949350505050565b7f4f6e6c79206661726d6572732063616e2072657061792066756e647321000000600082015250565b600061464b601d83613469565b915061465682614615565b602082019050919050565b6000602082019050818103600083015261467a8161463e565b9050919050565b7f416d6f756e7420746f207265706179206578636565647320746f74616c20616d60008201527f6f756e742077697468647261776e2e0000000000000000000000000000000000602082015250565b60006146dd602f83613469565b91506146e882614681565b604082019050919050565b6000602082019050818103600083015261470c816146d0565b9050919050565b600081905092915050565b50565b600061472e600083614713565b91506147398261471e565b600082019050919050565b600061474f82614721565b9150819050919050565b7f4661696c656420746f207472616e736665722066756e647320746f2044414f2e600082015250565b600061478f602083613469565b915061479a82614759565b602082019050919050565b600060208201905081810360008301526147be81614782565b9050919050565b7f4e616d652063616e6e6f7420626520656d707479000000000000000000000000600082015250565b60006147fb601483613469565b9150614806826147c5565b602082019050919050565b6000602082019050818103600083015261482a816147ee565b9050919050565b7f496e766573746f7220697320616c726561647920726567697374657265640000600082015250565b6000614867601e83613469565b915061487282614831565b602082019050919050565b600060208201905081810360008301526148968161485a565b9050919050565b7f4f6e6c79206661726d6572732063616e2077697468647261772066756e647321600082015250565b60006148d3602083613469565b91506148de8261489d565b602082019050919050565b60006020820190508181036000830152614902816148c6565b9050919050565b7f496e73756666696369656e742066756e647320746f2077697468647261772100600082015250565b600061493f601f83613469565b915061494a82614909565b602082019050919050565b6000602082019050818103600083015261496e81614932565b9050919050565b7f4661696c656420746f207472616e736665722066756e64732100000000000000600082015250565b60006149ab601983613469565b91506149b682614975565b602082019050919050565b600060208201905081810360008301526149da8161499e565b9050919050565b600060408201905081810360008301526149fb81856134b5565b9050614a0a602083018461344f565b939250505056fea264697066735822122059d813a56371e123eff98cf497ed4b298b97d142351d8cee602f15977039188d64736f6c63430008130033",
  "linkReferences": {},
  "deployedLinkReferences": {}
}