{
  "_format": "hh-sol-artifact-1",
  "contractName": "Marketplace",
  "sourceName": "contracts/Marketplace.sol",
  "abi": [
    {
      "inputs": [
        {
          "internalType": "address",
          "name": "_farmersDAO",
          "type": "address"
        }
      ],
      "stateMutability": "nonpayable",
      "type": "constructor"
    },
    {
      "inputs": [],
      "name": "currentFunding",
      "outputs": [
        {
          "internalType": "uint256",
          "name": "",
          "type": "uint256"
        }
      ],
      "stateMutability": "view",
      "type": "function"
    },
    {
      "inputs": [],
      "name": "farmer",
      "outputs": [
        {
          "internalType": "address",
          "name": "",
          "type": "address"
        }
      ],
      "stateMutability": "view",
      "type": "function"
    },
    {
      "inputs": [],
      "name": "farmersDAO",
      "outputs": [
        {
          "internalType": "contract FarmersDAO",
          "name": "",
          "type": "address"
        }
      ],
      "stateMutability": "view",
      "type": "function"
    },
    {
      "inputs": [],
      "name": "fundingGoal",
      "outputs": [
        {
          "internalType": "uint256",
          "name": "",
          "type": "uint256"
        }
      ],
      "stateMutability": "view",
      "type": "function"
    },
    {
      "inputs": [
        {
          "internalType": "address",
          "name": "investor",
          "type": "address"
        }
      ],
      "name": "getInvestmentAmount",
      "outputs": [
        {
          "internalType": "uint256",
          "name": "",
          "type": "uint256"
        }
      ],
      "stateMutability": "view",
      "type": "function"
    },
    {
      "inputs": [],
      "name": "getInvestorCount",
      "outputs": [
        {
          "internalType": "uint256",
          "name": "",
          "type": "uint256"
        }
      ],
      "stateMutability": "view",
      "type": "function"
    },
    {
      "inputs": [
        {
          "internalType": "uint256",
          "name": "daoID",
          "type": "uint256"
        }
      ],
      "name": "invest",
      "outputs": [],
      "stateMutability": "payable",
      "type": "function"
    },
    {
      "inputs": [
        {
          "internalType": "address",
          "name": "",
          "type": "address"
        }
      ],
      "name": "investments",
      "outputs": [
        {
          "internalType": "uint256",
          "name": "",
          "type": "uint256"
        }
      ],
      "stateMutability": "view",
      "type": "function"
    },
    {
      "inputs": [],
      "name": "numInvestors",
      "outputs": [
        {
          "internalType": "uint256",
          "name": "",
          "type": "uint256"
        }
      ],
      "stateMutability": "view",
      "type": "function"
    },
    {
      "inputs": [],
      "name": "withdrawFunds",
      "outputs": [],
      "stateMutability": "nonpayable",
      "type": "function"
    }
  ],
  "bytecode": "0x608060405234801561001057600080fd5b506040516109ca3803806109ca833981810160405281019061003291906100dc565b80600560006101000a81548173ffffffffffffffffffffffffffffffffffffffff021916908373ffffffffffffffffffffffffffffffffffffffff16021790555050610109565b600080fd5b600073ffffffffffffffffffffffffffffffffffffffff82169050919050565b60006100a98261007e565b9050919050565b6100b98161009e565b81146100c457600080fd5b50565b6000815190506100d6816100b0565b92915050565b6000602082840312156100f2576100f1610079565b5b6000610100848285016100c7565b91505092915050565b6108b2806101186000396000f3fe6080604052600436106100915760003560e01c806331e2b5de1161005957806331e2b5de1461015c5780637a3a0e8414610187578063960524e3146101b257806396b98862146101dd578063d811fcf01461021a57610091565b80630888b70d14610096578063132ae5e9146100c157806324600fc3146100ec5780632afcf480146101035780632d6fa4b21461011f575b600080fd5b3480156100a257600080fd5b506100ab610245565b6040516100b89190610586565b60405180910390f35b3480156100cd57600080fd5b506100d661024b565b6040516100e39190610586565b60405180910390f35b3480156100f857600080fd5b50610101610251565b005b61011d600480360381019061011891906105d2565b610352565b005b34801561012b57600080fd5b506101466004803603810190610141919061065d565b6104b2565b6040516101539190610586565b60405180910390f35b34801561016857600080fd5b506101716104fb565b60405161017e91906106e9565b60405180910390f35b34801561019357600080fd5b5061019c610521565b6040516101a99190610586565b60405180910390f35b3480156101be57600080fd5b506101c7610527565b6040516101d49190610586565b60405180910390f35b3480156101e957600080fd5b5061020460048036038101906101ff919061065d565b610531565b6040516102119190610586565b60405180910390f35b34801561022657600080fd5b5061022f610549565b60405161023c9190610713565b60405180910390f35b60025481565b60035481565b60008054906101000a900473ffffffffffffffffffffffffffffffffffffffff1673ffffffffffffffffffffffffffffffffffffffff163373ffffffffffffffffffffffffffffffffffffffff16146102df576040517f08c379a00000000000000000000000000000000000000000000000000000000081526004016102d6906107b1565b60405180910390fd5b60008054906101000a900473ffffffffffffffffffffffffffffffffffffffff1673ffffffffffffffffffffffffffffffffffffffff166108fc6002549081150290604051600060405180830381858888f19350505050158015610347573d6000803e3d6000fd5b506000600281905550565b600560009054906101000a900473ffffffffffffffffffffffffffffffffffffffff1673ffffffffffffffffffffffffffffffffffffffff1663610c8ced34836040518363ffffffff1660e01b81526004016103ae9190610586565b6000604051808303818588803b1580156103c757600080fd5b505af11580156103db573d6000803e3d6000fd5b50505050506000600460003373ffffffffffffffffffffffffffffffffffffffff1673ffffffffffffffffffffffffffffffffffffffff1681526020019081526020016000205403610440576003600081548092919061043a90610800565b91905055505b34600460003373ffffffffffffffffffffffffffffffffffffffff1673ffffffffffffffffffffffffffffffffffffffff168152602001908152602001600020600082825461048f9190610848565b9250508190555034600260008282546104a89190610848565b9250508190555050565b6000600460008373ffffffffffffffffffffffffffffffffffffffff1673ffffffffffffffffffffffffffffffffffffffff168152602001908152602001600020549050919050565b600560009054906101000a900473ffffffffffffffffffffffffffffffffffffffff1681565b60015481565b6000600354905090565b60046020528060005260406000206000915090505481565b60008054906101000a900473ffffffffffffffffffffffffffffffffffffffff1681565b6000819050919050565b6105808161056d565b82525050565b600060208201905061059b6000830184610577565b92915050565b600080fd5b6105af8161056d565b81146105ba57600080fd5b50565b6000813590506105cc816105a6565b92915050565b6000602082840312156105e8576105e76105a1565b5b60006105f6848285016105bd565b91505092915050565b600073ffffffffffffffffffffffffffffffffffffffff82169050919050565b600061062a826105ff565b9050919050565b61063a8161061f565b811461064557600080fd5b50565b60008135905061065781610631565b92915050565b600060208284031215610673576106726105a1565b5b600061068184828501610648565b91505092915050565b6000819050919050565b60006106af6106aa6106a5846105ff565b61068a565b6105ff565b9050919050565b60006106c182610694565b9050919050565b60006106d3826106b6565b9050919050565b6106e3816106c8565b82525050565b60006020820190506106fe60008301846106da565b92915050565b61070d8161061f565b82525050565b60006020820190506107286000830184610704565b92915050565b600082825260208201905092915050565b7f4f6e6c7920746865206661726d65722063616e2077697468647261772066756e60008201527f6473000000000000000000000000000000000000000000000000000000000000602082015250565b600061079b60228361072e565b91506107a68261073f565b604082019050919050565b600060208201905081810360008301526107ca8161078e565b9050919050565b7f4e487b7100000000000000000000000000000000000000000000000000000000600052601160045260246000fd5b600061080b8261056d565b91507fffffffffffffffffffffffffffffffffffffffffffffffffffffffffffffffff820361083d5761083c6107d1565b5b600182019050919050565b60006108538261056d565b915061085e8361056d565b9250828201905080821115610876576108756107d1565b5b9291505056fea26469706673582212202b44706d70073bc5c9bfd61c92ff19562892574da831ec7878ddef49adb3d74f64736f6c63430008130033",
  "linkReferences": {},
  "deployedLinkReferences": {}
}